{
    "contractName": "DocumentManager",
    "abi": [
        {
            "inputs": [
                {
                    "internalType": "string",
                    "name": "_object",
                    "type": "string"
                }
            ],
            "stateMutability": "nonpayable",
            "type": "constructor"
        },
        {
            "inputs": [],
            "name": "GetObject",
            "outputs": [
                {
                    "internalType": "string",
                    "name": "",
                    "type": "string"
                }
            ],
            "stateMutability": "view",
            "type": "function"
        },
        {
            "inputs": [
                {
                    "internalType": "string",
                    "name": "_object",
                    "type": "string"
                }
            ],
            "name": "SetObject",
            "outputs": [],
            "stateMutability": "nonpayable",
            "type": "function"
        },
        {
            "inputs": [],
            "name": "object",
            "outputs": [
                {
                    "internalType": "string",
                    "name": "",
                    "type": "string"
                }
            ],
            "stateMutability": "view",
            "type": "function"
        }
    ],
    "bytecode": "608060405234801561001057600080fd5b506040516106bd3803806106bd83398101604081905261002f91610058565b600061003b82826101aa565b5050610269565b634e487b7160e01b600052604160045260246000fd5b6000602080838503121561006b57600080fd5b82516001600160401b038082111561008257600080fd5b818501915085601f83011261009657600080fd5b8151818111156100a8576100a8610042565b604051601f8201601f19908116603f011681019083821181831017156100d0576100d0610042565b8160405282815288868487010111156100e857600080fd5b600093505b8284101561010a57848401860151818501870152928501926100ed565b600086848301015280965050505050505092915050565b600181811c9082168061013557607f821691505b60208210810361015557634e487b7160e01b600052602260045260246000fd5b50919050565b601f8211156101a557600081815260208120601f850160051c810160208610156101825750805b601f850160051c820191505b818110156101a15782815560010161018e565b5050505b505050565b81516001600160401b038111156101c3576101c3610042565b6101d7816101d18454610121565b8461015b565b602080601f83116001811461020c57600084156101f45750858301515b600019600386901b1c1916600185901b1785556101a1565b600085815260208120601f198616915b8281101561023b5788860151825594840194600190910190840161021c565b50858210156102595787850151600019600388901b60f8161c191681555b5050505050600190811b01905550565b610445806102786000396000f3fe608060405234801561001057600080fd5b50600436106100415760003560e01c80632812988f146100465780635dcfab1b14610064578063fa1d84361461006c575b600080fd5b61004e610081565b60405161005b91906101b1565b60405180910390f35b61004e61010f565b61007f61007a366004610215565b6101a1565b005b6000805461008e906102c6565b80601f01602080910402602001604051908101604052809291908181526020018280546100ba906102c6565b80156101075780601f106100dc57610100808354040283529160200191610107565b820191906000526020600020905b8154815290600101906020018083116100ea57829003601f168201915b505050505081565b60606000805461011e906102c6565b80601f016020809104026020016040519081016040528092919081815260200182805461014a906102c6565b80156101975780601f1061016c57610100808354040283529160200191610197565b820191906000526020600020905b81548152906001019060200180831161017a57829003601f168201915b5050505050905090565b60006101ad828261034f565b5050565b600060208083528351808285015260005b818110156101de578581018301518582016040015282016101c2565b506000604082860101526040601f19601f8301168501019250505092915050565b634e487b7160e01b600052604160045260246000fd5b60006020828403121561022757600080fd5b813567ffffffffffffffff8082111561023f57600080fd5b818401915084601f83011261025357600080fd5b813581811115610265576102656101ff565b604051601f8201601f19908116603f0116810190838211818310171561028d5761028d6101ff565b816040528281528760208487010111156102a657600080fd5b826020860160208301376000928101602001929092525095945050505050565b600181811c908216806102da57607f821691505b6020821081036102fa57634e487b7160e01b600052602260045260246000fd5b50919050565b601f82111561034a57600081815260208120601f850160051c810160208610156103275750805b601f850160051c820191505b8181101561034657828155600101610333565b5050505b505050565b815167ffffffffffffffff811115610369576103696101ff565b61037d8161037784546102c6565b84610300565b602080601f8311600181146103b2576000841561039a5750858301515b600019600386901b1c1916600185901b178555610346565b600085815260208120601f198616915b828110156103e1578886015182559484019460019091019084016103c2565b50858210156103ff5787850151600019600388901b60f8161c191681555b5050505050600190811b0190555056fea2646970667358221220a2e740d0cf16f69e348a031e5228b2fbd6e8e16ef9daaddc9e9d1cb4e6621b2764736f6c63430008130033",
    "sourcePath": "/Users/Projekty/GIT/solidity/contracts/Contract.sol",
    "compiler": {
        "name": "solc",
        "version": "0.8.19+commit.7dd6d404"
    },
    "functionHashes": {
        "GetObject()": "5dcfab1b",
        "SetObject(string)": "fa1d8436",
        "object()": "2812988f"
    },
    "gasEstimates": {
        "creation": {
            "codeDepositCost": "218600",
            "executionCost": "infinite",
            "totalCost": "infinite"
        },
        "external": {
            "GetObject()": "infinite",
            "SetObject(string)": "infinite",
            "object()": "infinite"
        }
    }
}